{
  "_format": "hh-sol-artifact-1",
  "contractName": "Pay",
  "sourceName": "contracts/Pay.sol",
  "abi": [
    {
      "inputs": [],
      "stateMutability": "nonpayable",
      "type": "constructor"
    },
    {
      "anonymous": false,
      "inputs": [
        {
          "indexed": true,
          "internalType": "address",
          "name": "sender",
          "type": "address"
        },
        {
          "indexed": false,
          "internalType": "uint256",
          "name": "amount",
          "type": "uint256"
        },
        {
          "indexed": false,
          "internalType": "uint256",
          "name": "timestamp",
          "type": "uint256"
        }
      ],
      "name": "PaymentReceived",
      "type": "event"
    },
    {
      "inputs": [],
      "name": "Day",
      "outputs": [],
      "stateMutability": "payable",
      "type": "function"
    },
    {
      "inputs": [],
      "name": "balance",
      "outputs": [
        {
          "internalType": "uint256",
          "name": "",
          "type": "uint256"
        }
      ],
      "stateMutability": "view",
      "type": "function"
    },
    {
      "inputs": [],
      "name": "firstHour",
      "outputs": [],
      "stateMutability": "payable",
      "type": "function"
    },
    {
      "inputs": [],
      "name": "getBalance",
      "outputs": [
        {
          "internalType": "uint256",
          "name": "",
          "type": "uint256"
        }
      ],
      "stateMutability": "view",
      "type": "function"
    },
    {
      "inputs": [],
      "name": "owner",
      "outputs": [
        {
          "internalType": "address",
          "name": "",
          "type": "address"
        }
      ],
      "stateMutability": "view",
      "type": "function"
    },
    {
      "inputs": [],
      "name": "secondHour",
      "outputs": [],
      "stateMutability": "payable",
      "type": "function"
    },
    {
      "inputs": [],
      "name": "sixthHour",
      "outputs": [],
      "stateMutability": "payable",
      "type": "function"
    },
    {
      "inputs": [],
      "name": "thirdHour",
      "outputs": [],
      "stateMutability": "payable",
      "type": "function"
    }
  ],
  "bytecode": "0x6080604052348015600f57600080fd5b50336000806101000a81548173ffffffffffffffffffffffffffffffffffffffff021916908373ffffffffffffffffffffffffffffffffffffffff1602179055506104268061005f6000396000f3fe60806040526004361061007b5760003560e01c80638da5cb5b1161004e5780638da5cb5b146100c9578063b69ef8a8146100f4578063bc9dc4de1461011f578063c533a09c146101295761007b565b80630ab457fe1461008057806312065fe01461008a5780631e457eea146100b5578063613eff87146100bf575b600080fd5b610088610133565b005b34801561009657600080fd5b5061009f610140565b6040516100ac9190610270565b60405180910390f35b6100bd61014a565b005b6100c7610157565b005b3480156100d557600080fd5b506100de610164565b6040516100eb91906102cc565b60405180910390f35b34801561010057600080fd5b50610109610188565b6040516101169190610270565b60405180910390f35b61012761018e565b005b61013161019b565b005b61013e61ea606101a9565b565b6000600154905090565b6101556127106101a9565b565b6101626175306101a9565b565b60008054906101000a900473ffffffffffffffffffffffffffffffffffffffff1681565b60015481565b610199614e206101a9565b565b6101a76201d4c06101a9565b565b8034146101eb576040517f08c379a00000000000000000000000000000000000000000000000000000000081526004016101e290610344565b60405180910390fd5b34600160008282546101fd9190610393565b925050819055503373ffffffffffffffffffffffffffffffffffffffff167f5677b5d4cf976ac32defbd95a6a5aaf0d1fee450a11fc26f3c11aae6e6c33d06344260405161024c9291906103c7565b60405180910390a250565b6000819050919050565b61026a81610257565b82525050565b60006020820190506102856000830184610261565b92915050565b600073ffffffffffffffffffffffffffffffffffffffff82169050919050565b60006102b68261028b565b9050919050565b6102c6816102ab565b82525050565b60006020820190506102e160008301846102bd565b92915050565b600082825260208201905092915050565b7f506c65617365207061792074686520636f727265637420616d6f756e74000000600082015250565b600061032e601d836102e7565b9150610339826102f8565b602082019050919050565b6000602082019050818103600083015261035d81610321565b9050919050565b7f4e487b7100000000000000000000000000000000000000000000000000000000600052601160045260246000fd5b600061039e82610257565b91506103a983610257565b92508282019050808211156103c1576103c0610364565b5b92915050565b60006040820190506103dc6000830185610261565b6103e96020830184610261565b939250505056fea2646970667358221220fc07a2d092f35a68e282ca01ef4d663a7499c0f1cf934ab2f4555f410286f4cf64736f6c634300081c0033",
  "linkReferences": {},
  "deployedLinkReferences": {}
}